{
  "contractName": "LandRegistration",
  "abi": [
    {
      "inputs": [],
      "payable": false,
      "stateMutability": "nonpayable",
      "type": "constructor"
    },
    {
      "constant": false,
      "inputs": [
        {
          "internalType": "uint256",
          "name": "_area",
          "type": "uint256"
        },
        {
          "internalType": "string",
          "name": "_infoHash",
          "type": "string"
        },
        {
          "internalType": "string",
          "name": "_surveyNumber",
          "type": "string"
        },
        {
          "internalType": "address payable",
          "name": "_OwnerAddress",
          "type": "address"
        },
        {
          "internalType": "uint64",
          "name": "_dateOfReg",
          "type": "uint64"
        },
        {
          "internalType": "uint256",
          "name": "_marketValue",
          "type": "uint256"
        },
        {
          "internalType": "uint64",
          "name": "id",
          "type": "uint64"
        },
        {
          "internalType": "string",
          "name": "_cred",
          "type": "string"
        }
      ],
      "name": "Registration",
      "outputs": [
        {
          "internalType": "bool",
          "name": "",
          "type": "bool"
        }
      ],
      "payable": false,
      "stateMutability": "nonpayable",
      "type": "function"
    },
    {
      "constant": true,
      "inputs": [
        {
          "internalType": "uint64",
          "name": "id",
          "type": "uint64"
        }
      ],
      "name": "getLandOwner",
      "outputs": [
        {
          "internalType": "address",
          "name": "",
          "type": "address"
        }
      ],
      "payable": false,
      "stateMutability": "view",
      "type": "function"
    },
    {
      "constant": true,
      "inputs": [
        {
          "internalType": "address",
          "name": "_address",
          "type": "address"
        }
      ],
      "name": "checkIfOwnerExists",
      "outputs": [
        {
          "internalType": "bool",
          "name": "",
          "type": "bool"
        }
      ],
      "payable": false,
      "stateMutability": "view",
      "type": "function"
    },
    {
      "constant": true,
      "inputs": [
        {
          "internalType": "address",
          "name": "_address",
          "type": "address"
        }
      ],
      "name": "viewAssets",
      "outputs": [
        {
          "internalType": "uint64[]",
          "name": "",
          "type": "uint64[]"
        }
      ],
      "payable": false,
      "stateMutability": "view",
      "type": "function"
    },
    {
      "constant": true,
      "inputs": [
        {
          "internalType": "uint64",
          "name": "id",
          "type": "uint64"
        }
      ],
      "name": "landInfoOwner",
      "outputs": [
        {
          "internalType": "uint256",
          "name": "",
          "type": "uint256"
        },
        {
          "internalType": "string",
          "name": "",
          "type": "string"
        },
        {
          "internalType": "string",
          "name": "",
          "type": "string"
        },
        {
          "internalType": "bool",
          "name": "",
          "type": "bool"
        },
        {
          "internalType": "address",
          "name": "",
          "type": "address"
        },
        {
          "internalType": "enum LandRegistration.reqStatus",
          "name": "",
          "type": "uint8"
        }
      ],
      "payable": false,
      "stateMutability": "view",
      "type": "function"
    },
    {
      "constant": true,
      "inputs": [
        {
          "internalType": "uint64",
          "name": "id",
          "type": "uint64"
        }
      ],
      "name": "landInfoBuyer",
      "outputs": [
        {
          "internalType": "address",
          "name": "",
          "type": "address"
        },
        {
          "internalType": "uint256",
          "name": "",
          "type": "uint256"
        },
        {
          "internalType": "bool",
          "name": "",
          "type": "bool"
        },
        {
          "internalType": "address",
          "name": "",
          "type": "address"
        },
        {
          "internalType": "enum LandRegistration.reqStatus",
          "name": "",
          "type": "uint8"
        }
      ],
      "payable": false,
      "stateMutability": "view",
      "type": "function"
    },
    {
      "constant": false,
      "inputs": [
        {
          "internalType": "uint64",
          "name": "property",
          "type": "uint64"
        }
      ],
      "name": "makeAvailable",
      "outputs": [],
      "payable": false,
      "stateMutability": "nonpayable",
      "type": "function"
    },
    {
      "constant": true,
      "inputs": [
        {
          "internalType": "uint64",
          "name": "property",
          "type": "uint64"
        }
      ],
      "name": "checkIfForSale",
      "outputs": [
        {
          "internalType": "bool",
          "name": "",
          "type": "bool"
        }
      ],
      "payable": false,
      "stateMutability": "view",
      "type": "function"
    },
    {
      "constant": true,
      "inputs": [
        {
          "internalType": "uint64",
          "name": "id",
          "type": "uint64"
        }
      ],
      "name": "getMarketValue",
      "outputs": [
        {
          "internalType": "uint256",
          "name": "",
          "type": "uint256"
        }
      ],
      "payable": false,
      "stateMutability": "view",
      "type": "function"
    },
    {
      "constant": false,
      "inputs": [
        {
          "internalType": "uint64",
          "name": "id",
          "type": "uint64"
        },
        {
          "internalType": "uint256",
          "name": "newPrice",
          "type": "uint256"
        }
      ],
      "name": "updateMarketValue",
      "outputs": [],
      "payable": false,
      "stateMutability": "nonpayable",
      "type": "function"
    },
    {
      "constant": false,
      "inputs": [
        {
          "internalType": "uint256",
          "name": "id",
          "type": "uint256"
        }
      ],
      "name": "requestToLandOwner",
      "outputs": [],
      "payable": false,
      "stateMutability": "nonpayable",
      "type": "function"
    },
    {
      "constant": true,
      "inputs": [
        {
          "internalType": "string",
          "name": "_city",
          "type": "string"
        },
        {
          "internalType": "string",
          "name": "_district",
          "type": "string"
        },
        {
          "internalType": "string",
          "name": "_village",
          "type": "string"
        },
        {
          "internalType": "string",
          "name": "_surveyNumber",
          "type": "string"
        }
      ],
      "name": "computeId",
      "outputs": [
        {
          "internalType": "uint256",
          "name": "",
          "type": "uint256"
        }
      ],
      "payable": false,
      "stateMutability": "view",
      "type": "function"
    },
    {
      "constant": false,
      "inputs": [
        {
          "internalType": "uint64",
          "name": "property",
          "type": "uint64"
        },
        {
          "internalType": "enum LandRegistration.reqStatus",
          "name": "status",
          "type": "uint8"
        }
      ],
      "name": "processRequest",
      "outputs": [],
      "payable": false,
      "stateMutability": "nonpayable",
      "type": "function"
    },
    {
      "constant": false,
      "inputs": [
        {
          "internalType": "uint64",
          "name": "property",
          "type": "uint64"
        },
        {
          "internalType": "uint64",
          "name": "date",
          "type": "uint64"
        }
      ],
      "name": "buyProperty",
      "outputs": [],
      "payable": true,
      "stateMutability": "payable",
      "type": "function"
    },
    {
      "constant": true,
      "inputs": [
        {
          "internalType": "uint256",
          "name": "id",
          "type": "uint256"
        },
        {
          "internalType": "address",
          "name": "user",
          "type": "address"
        }
      ],
      "name": "findId",
      "outputs": [
        {
          "internalType": "uint256",
          "name": "",
          "type": "uint256"
        }
      ],
      "payable": false,
      "stateMutability": "view",
      "type": "function"
    },
    {
      "constant": false,
      "inputs": [
        {
          "internalType": "uint64",
          "name": "id",
          "type": "uint64"
        },
        {
          "internalType": "address",
          "name": "_acctFrom",
          "type": "address"
        },
        {
          "internalType": "address",
          "name": "_acctTo",
          "type": "address"
        },
        {
          "internalType": "uint64",
          "name": "_date",
          "type": "uint64"
        }
      ],
      "name": "setTransaction",
      "outputs": [
        {
          "internalType": "bool",
          "name": "",
          "type": "bool"
        }
      ],
      "payable": false,
      "stateMutability": "nonpayable",
      "type": "function"
    },
    {
      "constant": true,
      "inputs": [
        {
          "internalType": "uint64",
          "name": "id",
          "type": "uint64"
        }
      ],
      "name": "getTransaction",
      "outputs": [
        {
          "internalType": "address",
          "name": "",
          "type": "address"
        },
        {
          "internalType": "address",
          "name": "",
          "type": "address"
        },
        {
          "internalType": "uint64",
          "name": "",
          "type": "uint64"
        }
      ],
      "payable": false,
      "stateMutability": "view",
      "type": "function"
    }
  ],
  "bytecode": "0x608060405234801561001057600080fd5b5033600160006101000a81548173ffffffffffffffffffffffffffffffffffffffff021916908373ffffffffffffffffffffffffffffffffffffffff1602179055506125be806100616000396000f3fe6080604052600436106100fe5760003560e01c806388a26d8411610095578063b07e2a3a11610064578063b07e2a3a14610926578063bf46d2f3146109f9578063cb69fb6214610c9a578063cbb45ce514610d4b578063d278cbdf14610d97576100fe565b806388a26d84146107b95780639f24f86514610808578063a27664ee1461085a578063afc6977e146108c9576100fe565b80634dce938a116100d15780634dce938a146105f15780635783c47e1461065a578063719c23ea146107395780637d1bfeb61461077e576100fe565b806322b31c4614610103578063260d62c3146102875780633c92944d1461032d57806343bd865014610598575b600080fd5b34801561010f57600080fd5b506101466004803603602081101561012657600080fd5b81019080803567ffffffffffffffff169060200190929190505050610e1c565b604051808781526020018060200180602001861515151581526020018573ffffffffffffffffffffffffffffffffffffffff1673ffffffffffffffffffffffffffffffffffffffff1681526020018460038111156101a057fe5b60ff168152602001838103835288818151815260200191508051906020019080838360005b838110156101e05780820151818401526020810190506101c5565b50505050905090810190601f16801561020d5780820380516001836020036101000a031916815260200191505b50838103825287818151815260200191508051906020019080838360005b8381101561024657808201518184015260208101905061022b565b50505050905090810190601f1680156102735780820380516001836020036101000a031916815260200191505b509850505050505050505060405180910390f35b34801561029357600080fd5b506102d6600480360360208110156102aa57600080fd5b81019080803573ffffffffffffffffffffffffffffffffffffffff16906020019092919050505061106b565b6040518080602001828103825283818151815260200191508051906020019060200280838360005b838110156103195780820151818401526020810190506102fe565b505050509050019250505060405180910390f35b34801561033957600080fd5b5061057e600480360361010081101561035157600080fd5b81019080803590602001909291908035906020019064010000000081111561037857600080fd5b82018360208201111561038a57600080fd5b803590602001918460018302840111640100000000831117156103ac57600080fd5b91908080601f016020809104026020016040519081016040528093929190818152602001838380828437600081840152601f19601f8201169050808301925050505050505091929192908035906020019064010000000081111561040f57600080fd5b82018360208201111561042157600080fd5b8035906020019184600183028401116401000000008311171561044357600080fd5b91908080601f016020809104026020016040519081016040528093929190818152602001838380828437600081840152601f19601f820116905080830192505050505050509192919290803573ffffffffffffffffffffffffffffffffffffffff169060200190929190803567ffffffffffffffff16906020019092919080359060200190929190803567ffffffffffffffff169060200190929190803590602001906401000000008111156104f857600080fd5b82018360208201111561050a57600080fd5b8035906020019184600183028401116401000000008311171561052c57600080fd5b91908080601f016020809104026020016040519081016040528093929190818152602001838380828437600081840152601f19601f820116905080830192505050505050509192919290505050611139565b604051808215151515815260200191505060405180910390f35b3480156105a457600080fd5b506105db600480360360208110156105bb57600080fd5b81019080803567ffffffffffffffff1690602001909291905050506113fb565b6040518082815260200191505060405180910390f35b3480156105fd57600080fd5b506106406004803603602081101561061457600080fd5b81019080803573ffffffffffffffffffffffffffffffffffffffff169060200190929190505050611424565b604051808215151515815260200191505060405180910390f35b34801561066657600080fd5b5061069d6004803603602081101561067d57600080fd5b81019080803567ffffffffffffffff169060200190929190505050611486565b604051808673ffffffffffffffffffffffffffffffffffffffff1673ffffffffffffffffffffffffffffffffffffffff168152602001858152602001841515151581526020018373ffffffffffffffffffffffffffffffffffffffff1673ffffffffffffffffffffffffffffffffffffffff16815260200182600381111561072157fe5b60ff1681526020019550505050505060405180910390f35b34801561074557600080fd5b5061077c6004803603602081101561075c57600080fd5b81019080803567ffffffffffffffff16906020019092919050505061159e565b005b34801561078a57600080fd5b506107b7600480360360208110156107a157600080fd5b81019080803590602001909291905050506116c7565b005b3480156107c557600080fd5b50610806600480360360408110156107dc57600080fd5b81019080803567ffffffffffffffff169060200190929190803590602001909291905050506117af565b005b34801561081457600080fd5b506108586004803603604081101561082b57600080fd5b81019080803567ffffffffffffffff169060200190929190803560ff16906020019092919050505061184e565b005b34801561086657600080fd5b506108b36004803603604081101561087d57600080fd5b8101908080359060200190929190803573ffffffffffffffffffffffffffffffffffffffff1690602001909291905050506119c9565b6040518082815260200191505060405180910390f35b3480156108d557600080fd5b5061090c600480360360208110156108ec57600080fd5b81019080803567ffffffffffffffff169060200190929190505050611ac7565b604051808215151515815260200191505060405180910390f35b34801561093257600080fd5b506109696004803603602081101561094957600080fd5b81019080803567ffffffffffffffff169060200190929190505050611afd565b604051808473ffffffffffffffffffffffffffffffffffffffff1673ffffffffffffffffffffffffffffffffffffffff1681526020018373ffffffffffffffffffffffffffffffffffffffff1673ffffffffffffffffffffffffffffffffffffffff1681526020018267ffffffffffffffff1667ffffffffffffffff168152602001935050505060405180910390f35b348015610a0557600080fd5b50610c8460048036036080811015610a1c57600080fd5b8101908080359060200190640100000000811115610a3957600080fd5b820183602082011115610a4b57600080fd5b80359060200191846001830284011164010000000083111715610a6d57600080fd5b91908080601f016020809104026020016040519081016040528093929190818152602001838380828437600081840152601f19601f82011690508083019250505050505050919291929080359060200190640100000000811115610ad057600080fd5b820183602082011115610ae257600080fd5b80359060200191846001830284011164010000000083111715610b0457600080fd5b91908080601f016020809104026020016040519081016040528093929190818152602001838380828437600081840152601f19601f82011690508083019250505050505050919291929080359060200190640100000000811115610b6757600080fd5b820183602082011115610b7957600080fd5b80359060200191846001830284011164010000000083111715610b9b57600080fd5b91908080601f016020809104026020016040519081016040528093929190818152602001838380828437600081840152601f19601f82011690508083019250505050505050919291929080359060200190640100000000811115610bfe57600080fd5b820183602082011115610c1057600080fd5b80359060200191846001830284011164010000000083111715610c3257600080fd5b91908080601f016020809104026020016040519081016040528093929190818152602001838380828437600081840152601f19601f820116905080830192505050505050509192919290505050611bc6565b6040518082815260200191505060405180910390f35b348015610ca657600080fd5b50610d3160048036036080811015610cbd57600080fd5b81019080803567ffffffffffffffff169060200190929190803573ffffffffffffffffffffffffffffffffffffffff169060200190929190803573ffffffffffffffffffffffffffffffffffffffff169060200190929190803567ffffffffffffffff169060200190929190505050611d4f565b604051808215151515815260200191505060405180910390f35b610d9560048036036040811015610d6157600080fd5b81019080803567ffffffffffffffff169060200190929190803567ffffffffffffffff169060200190929190505050611e62565b005b348015610da357600080fd5b50610dda60048036036020811015610dba57600080fd5b81019080803567ffffffffffffffff1690602001909291905050506121f0565b604051808273ffffffffffffffffffffffffffffffffffffffff1673ffffffffffffffffffffffffffffffffffffffff16815260200191505060405180910390f35b600060608060008060008060008867ffffffffffffffff168152602001908152602001600020600001546000808967ffffffffffffffff1681526020019081526020016000206001016000808a67ffffffffffffffff1681526020019081526020016000206002016000808b67ffffffffffffffff16815260200190815260200160002060050160089054906101000a900460ff166000808c67ffffffffffffffff16815260200190815260200160002060050160099054906101000a900473ffffffffffffffffffffffffffffffffffffffff166000808d67ffffffffffffffff168152602001908152602001600020600501601d9054906101000a900460ff16848054600181600116156101000203166002900480601f016020809104026020016040519081016040528092919081815260200182805460018160011615610100020316600290048015610fb35780601f10610f8857610100808354040283529160200191610fb3565b820191906000526020600020905b815481529060010190602001808311610f9657829003601f168201915b50505050509450838054600181600116156101000203166002900480601f01602080910402602001604051908101604052809291908181526020018280546001816001161561010002031660029004801561104f5780601f106110245761010080835404028352916020019161104f565b820191906000526020600020905b81548152906001019060200180831161103257829003601f168201915b5050505050935095509550955095509550955091939550919395565b6060600260008373ffffffffffffffffffffffffffffffffffffffff1673ffffffffffffffffffffffffffffffffffffffff16815260200190815260200160002060000180548060200260200160405190810160405280929190818152602001828054801561112d57602002820191906000526020600020906000905b82829054906101000a900467ffffffffffffffff1667ffffffffffffffff16815260200190600801906020826007010492830192600103820291508084116110e85790505b50505050509050919050565b600060405160200180807f696e73706563746f720000000000000000000000000000000000000000000000815250600901905060405160208183030381529060405280519060200120826040516020018082805190602001908083835b602083106111b95780518252602082019150602081019050602083039250611196565b6001836020036101000a03801982511681845116808217855250505050505090500191505060405160208183030381529060405280519060200120146111fe57600080fd5b886000808567ffffffffffffffff16815260200190815260200160002060000181905550876000808567ffffffffffffffff16815260200190815260200160002060010190805190602001906112559291906124aa565b50866000808567ffffffffffffffff16815260200190815260200160002060020190805190602001906112899291906124aa565b50856000808567ffffffffffffffff16815260200190815260200160002060030160006101000a81548173ffffffffffffffffffffffffffffffffffffffff021916908373ffffffffffffffffffffffffffffffffffffffff160217905550846000808567ffffffffffffffff16815260200190815260200160002060050160006101000a81548167ffffffffffffffff021916908367ffffffffffffffff160217905550836000808567ffffffffffffffff16815260200190815260200160002060040181905550600260008773ffffffffffffffffffffffffffffffffffffffff1673ffffffffffffffffffffffffffffffffffffffff16815260200190815260200160002060000183908060018154018082558091505090600182039060005260206000209060049182820401919006600802909192909190916101000a81548167ffffffffffffffff021916908367ffffffffffffffff160217905550506001905098975050505050505050565b60008060008367ffffffffffffffff168152602001908152602001600020600401549050919050565b600080600260008473ffffffffffffffffffffffffffffffffffffffff1673ffffffffffffffffffffffffffffffffffffffff16815260200190815260200160002060000180549050111561147c5760019050611481565b600090505b919050565b60008060008060008060008767ffffffffffffffff16815260200190815260200160002060030160009054906101000a900473ffffffffffffffffffffffffffffffffffffffff166000808867ffffffffffffffff168152602001908152602001600020600401546000808967ffffffffffffffff16815260200190815260200160002060050160089054906101000a900460ff166000808a67ffffffffffffffff16815260200190815260200160002060050160099054906101000a900473ffffffffffffffffffffffffffffffffffffffff166000808b67ffffffffffffffff168152602001908152602001600020600501601d9054906101000a900460ff168494509450945094509450945091939590929450565b3373ffffffffffffffffffffffffffffffffffffffff166000808367ffffffffffffffff16815260200190815260200160002060030160009054906101000a900473ffffffffffffffffffffffffffffffffffffffff1673ffffffffffffffffffffffffffffffffffffffff161461161557600080fd5b600015156000808367ffffffffffffffff16815260200190815260200160002060050160089054906101000a900460ff161515141561168b5760016000808367ffffffffffffffff16815260200190815260200160002060050160086101000a81548160ff0219169083151502179055506116c4565b60008060008367ffffffffffffffff16815260200190815260200160002060050160086101000a81548160ff0219169083151502179055505b50565b60008082815260200190815260200160002060050160089054906101000a900460ff166116f357600080fd5b3360008083815260200190815260200160002060050160096101000a81548173ffffffffffffffffffffffffffffffffffffffff021916908373ffffffffffffffffffffffffffffffffffffffff160217905550600080600083815260200190815260200160002060050160086101000a81548160ff0219169083151502179055506001600080838152602001908152602001600020600501601d6101000a81548160ff021916908360038111156117a757fe5b021790555050565b3373ffffffffffffffffffffffffffffffffffffffff166000808467ffffffffffffffff16815260200190815260200160002060030160009054906101000a900473ffffffffffffffffffffffffffffffffffffffff1673ffffffffffffffffffffffffffffffffffffffff161461182657600080fd5b806000808467ffffffffffffffff168152602001908152602001600020600401819055505050565b3373ffffffffffffffffffffffffffffffffffffffff166000808467ffffffffffffffff16815260200190815260200160002060030160009054906101000a900473ffffffffffffffffffffffffffffffffffffffff1673ffffffffffffffffffffffffffffffffffffffff16146118c557600080fd5b806000808467ffffffffffffffff168152602001908152602001600020600501601d6101000a81548160ff0219169083600381111561190057fe5b02179055506002600381111561191257fe5b81600381111561191e57fe5b14156119c55760008060008467ffffffffffffffff16815260200190815260200160002060050160096101000a81548173ffffffffffffffffffffffffffffffffffffffff021916908373ffffffffffffffffffffffffffffffffffffffff16021790555060008060008467ffffffffffffffff168152602001908152602001600020600501601d6101000a81548160ff021916908360038111156119bf57fe5b02179055505b5050565b600080600090505b600260008473ffffffffffffffffffffffffffffffffffffffff1673ffffffffffffffffffffffffffffffffffffffff16815260200190815260200160002060000180549050811015611abc5783600260008573ffffffffffffffffffffffffffffffffffffffff1673ffffffffffffffffffffffffffffffffffffffff1681526020019081526020016000206000018281548110611a6c57fe5b90600052602060002090600491828204019190066008029054906101000a900467ffffffffffffffff1667ffffffffffffffff161415611aaf5780915050611ac1565b80806001019150506119d1565b809150505b92915050565b60008060008367ffffffffffffffff16815260200190815260200160002060050160089054906101000a900460ff169050919050565b6000806000600360008567ffffffffffffffff16815260200190815260200160002060010160009054906101000a900473ffffffffffffffffffffffffffffffffffffffff16600360008667ffffffffffffffff16815260200190815260200160002060000160009054906101000a900473ffffffffffffffffffffffffffffffffffffffff16600360008767ffffffffffffffff16815260200190815260200160002060010160149054906101000a900467ffffffffffffffff169250925092509193909250565b60006509184e72a000858585856040516020018085805190602001908083835b60208310611c095780518252602082019150602081019050602083039250611be6565b6001836020036101000a03801982511681845116808217855250505050505090500184805190602001908083835b60208310611c5a5780518252602082019150602081019050602083039250611c37565b6001836020036101000a03801982511681845116808217855250505050505090500183805190602001908083835b60208310611cab5780518252602082019150602081019050602083039250611c88565b6001836020036101000a03801982511681845116808217855250505050505090500182805190602001908083835b60208310611cfc5780518252602082019150602081019050602083039250611cd9565b6001836020036101000a0380198251168184511680821785525050505050509050019450505050506040516020818303038152906040528051906020012060001c81611d4457fe5b069050949350505050565b600083600360008767ffffffffffffffff16815260200190815260200160002060000160006101000a81548173ffffffffffffffffffffffffffffffffffffffff021916908373ffffffffffffffffffffffffffffffffffffffff16021790555082600360008767ffffffffffffffff16815260200190815260200160002060010160006101000a81548173ffffffffffffffffffffffffffffffffffffffff021916908373ffffffffffffffffffffffffffffffffffffffff16021790555081600360008767ffffffffffffffff16815260200190815260200160002060010160146101000a81548167ffffffffffffffff021916908367ffffffffffffffff16021790555060019050949350505050565b600380811115611e6e57fe5b6000808467ffffffffffffffff168152602001908152602001600020600501601d9054906101000a900460ff166003811115611ea657fe5b14611eb057600080fd5b60008060008467ffffffffffffffff1681526020019081526020016000206004015490506000670de0b6b3a764000090506000818302905080341015611ef557600080fd5b6000808667ffffffffffffffff16815260200190815260200160002060030160009054906101000a900473ffffffffffffffffffffffffffffffffffffffff1673ffffffffffffffffffffffffffffffffffffffff166108fc829081150290604051600060405180830381858888f19350505050158015611f7a573d6000803e3d6000fd5b50611fc6856000808867ffffffffffffffff16815260200190815260200160002060030160009054906101000a900473ffffffffffffffffffffffffffffffffffffffff163387611d4f565b5061201a6000808767ffffffffffffffff16815260200190815260200160002060030160009054906101000a900473ffffffffffffffffffffffffffffffffffffffff168667ffffffffffffffff16612239565b336000808767ffffffffffffffff16815260200190815260200160002060030160006101000a81548173ffffffffffffffffffffffffffffffffffffffff021916908373ffffffffffffffffffffffffffffffffffffffff16021790555060008060008767ffffffffffffffff16815260200190815260200160002060050160086101000a81548160ff02191690831515021790555060008060008767ffffffffffffffff16815260200190815260200160002060050160096101000a81548173ffffffffffffffffffffffffffffffffffffffff021916908373ffffffffffffffffffffffffffffffffffffffff16021790555060008060008767ffffffffffffffff168152602001908152602001600020600501601d6101000a81548160ff0219169083600381111561214b57fe5b0217905550600260003373ffffffffffffffffffffffffffffffffffffffff1673ffffffffffffffffffffffffffffffffffffffff16815260200190815260200160002060000185908060018154018082558091505090600182039060005260206000209060049182820401919006600802909192909190916101000a81548167ffffffffffffffff021916908367ffffffffffffffff160217905550505050505050565b60008060008367ffffffffffffffff16815260200190815260200160002060030160009054906101000a900473ffffffffffffffffffffffffffffffffffffffff169050919050565b600061224582846119c9565b9050600260008473ffffffffffffffffffffffffffffffffffffffff1673ffffffffffffffffffffffffffffffffffffffff1681526020019081526020016000206000016001600260008673ffffffffffffffffffffffffffffffffffffffff1673ffffffffffffffffffffffffffffffffffffffff1681526020019081526020016000206000018054905003815481106122dc57fe5b90600052602060002090600491828204019190066008029054906101000a900467ffffffffffffffff16600260008573ffffffffffffffffffffffffffffffffffffffff1673ffffffffffffffffffffffffffffffffffffffff168152602001908152602001600020600001828154811061235357fe5b90600052602060002090600491828204019190066008026101000a81548167ffffffffffffffff021916908367ffffffffffffffff160217905550600260008473ffffffffffffffffffffffffffffffffffffffff1673ffffffffffffffffffffffffffffffffffffffff1681526020019081526020016000206000016001600260008673ffffffffffffffffffffffffffffffffffffffff1673ffffffffffffffffffffffffffffffffffffffff16815260200190815260200160002060000180549050038154811061242357fe5b90600052602060002090600491828204019190066008026101000a81549067ffffffffffffffff0219169055600260008473ffffffffffffffffffffffffffffffffffffffff1673ffffffffffffffffffffffffffffffffffffffff1681526020019081526020016000206000018054809190600190036124a4919061252a565b50505050565b828054600181600116156101000203166002900490600052602060002090601f016020900481019282601f106124eb57805160ff1916838001178555612519565b82800160010185558215612519579182015b828111156125185782518255916020019190600101906124fd565b5b5090506125269190612564565b5090565b81548183558181111561255f57600301600490048160030160049004836000526020600020918201910161255e9190612564565b5b505050565b61258691905b8082111561258257600081600090555060010161256a565b5090565b9056fea265627a7a72315820c339d345b3dd0569d31c3933cb945ceacae68aa35bd4f6b109a0ab7749e7a49664736f6c63430005100032",
  "source": "pragma solidity >=0.4.0 <0.6.0;\r\n\r\n//Land Details\r\ncontract LandRegistration{\r\n    //User user = User();\r\n\r\n    struct landDetails{\r\n        uint area;\r\n        string infoHash;\r\n        string surveyNumber;\r\n        address payable CurrentOwner;\r\n        uint marketValue;\r\n        uint64 dateOfReg;\r\n        bool isAvailable;\r\n        address requester;\r\n        reqStatus requestStatus;\r\n    }\r\n    \r\n    //request status\r\n    enum reqStatus {Default,pending,reject,approved}\r\n\r\n    //profile of a client\r\n    struct profiles{\r\n        uint64[] assetList;   \r\n    }\r\n\r\n    mapping(uint => landDetails) land;\r\n    address owner;\r\n    mapping(address => profiles) profile;\r\n    \r\n    //contract owner\r\n    constructor() public{\r\n        owner = msg.sender;\r\n    }\r\n    modifier onlyOwner {\r\n        require(msg.sender == owner);\r\n        _;\r\n    }\r\n\r\n    struct transact{\r\n      address acctFrom;\r\n      address acctTo;\r\n      uint64 date;\r\n    }\r\n  \r\n    mapping (uint => transact) transaction;\r\n\r\n    //Registration of land details.\r\n    function Registration(\r\n        uint _area,\r\n        string memory _infoHash,\r\n        string memory _surveyNumber,\r\n        address payable _OwnerAddress,\r\n        uint64 _dateOfReg,\r\n        uint _marketValue,\r\n        uint64 id,\r\n        string memory _cred\r\n        ) public returns(bool ) {\r\n            require(keccak256(abi.encodePacked(_cred)) ==\r\n            keccak256(abi.encodePacked(\"inspector\")));\r\n            land[id].area = _area;\r\n            land[id].infoHash = _infoHash;\r\n            land[id].surveyNumber = _surveyNumber;\r\n            land[id].CurrentOwner = _OwnerAddress;\r\n            land[id].dateOfReg = _dateOfReg;\r\n            land[id].marketValue = _marketValue;\r\n            profile[_OwnerAddress].assetList.push(id);              //stores owner address in 'profile,' with land id in asset\r\n            return true;\r\n    }\r\n\r\n    //gets owner's address to display on webpage\r\n    function getLandOwner(uint64 id) public view returns(address){\r\n        return(land[id].CurrentOwner);\r\n    }\r\n\r\n    function checkIfOwnerExists(address _address)\r\n    public view returns (bool){\r\n        if (profile[_address].assetList.length > 0){\r\n            return true;\r\n        }\r\n        return false;\r\n    }\r\n\r\n   //will show assets of the function caller \r\n\r\n    function viewAssets(address _address)\r\n    public view returns(uint64[] memory){\r\n        return (profile[_address].assetList);\r\n    }\r\n\r\n    \r\n\r\n    //to view details of land for the owner\r\n\r\n    function landInfoOwner(uint64 id)\r\n    public view returns(\r\n        uint,\r\n        string memory,\r\n        string memory,\r\n        bool,\r\n        address,\r\n        reqStatus){\r\n        return(\r\n            land[id].area,\r\n            land[id].infoHash,\r\n            land[id].surveyNumber,\r\n            land[id].isAvailable,\r\n            land[id].requester,\r\n            land[id].requestStatus\r\n        );\r\n    }\r\n\r\n        //to view details of land for the buyer\r\n\r\n    function landInfoBuyer(uint64 id)\r\n    public view returns(\r\n        address,\r\n        uint,\r\n        bool,\r\n        address,\r\n        reqStatus){\r\n        return(\r\n            land[id].CurrentOwner,\r\n            land[id].marketValue,\r\n            land[id].isAvailable,\r\n            land[id].requester,\r\n            land[id].requestStatus\r\n        );\r\n    }\r\n\r\n     //availing land for sale.\r\n\r\n    function makeAvailable(uint64 property)public{\r\n        require(land[property].CurrentOwner == msg.sender);\r\n        if(land[property].isAvailable == false){\r\n            land[property].isAvailable = true;\r\n        }\r\n        else{\r\n            land[property].isAvailable = false;\r\n        }\r\n    } \r\n\r\n    function checkIfForSale(uint64 property)\r\n    public view returns(bool){\r\n        return land[property].isAvailable;\r\n    }\r\n\r\n    //get market value\r\n    function getMarketValue(uint64 id) public view returns(uint){\r\n        return land[id].marketValue;\r\n    }\r\n\r\n    //update Market \r\n    \r\n    function updateMarketValue(uint64 id, uint newPrice)\r\n    public{\r\n        require(land[id].CurrentOwner == msg.sender);\r\n        land[id].marketValue = newPrice;\r\n    }\r\n\r\n    function requestToLandOwner(uint id) public {\r\n        require(land[id].isAvailable);\r\n        land[id].requester=msg.sender;\r\n        land[id].isAvailable=false;\r\n        land[id].requestStatus = reqStatus.pending; \r\n    }\r\n    \r\n\r\n    // to compute id for a land.\r\n    function computeId(string memory _city,string memory _district,string memory _village,string memory _surveyNumber) public view returns(uint){\r\n        return uint(keccak256(abi.encodePacked(_city,_district,_village,_surveyNumber)))%10000000000000;\r\n    }\r\n\r\n    //processing request for the land by accepting or rejecting\r\n\r\n    function processRequest(uint64 property,reqStatus status)\r\n    public {\r\n        require(land[property].CurrentOwner == msg.sender);\r\n        land[property].requestStatus=status;\r\n        if(status == reqStatus.reject){\r\n            land[property].requester = address(0);\r\n            land[property].requestStatus = reqStatus.Default;\r\n        }\r\n    }\r\n   \r\n    //buying the approved property\r\n\r\n    function buyProperty(uint64 property, uint64 date)\r\n    public payable{\r\n        require(land[property].requestStatus == reqStatus.approved);\r\n        uint price = land[property].marketValue;\r\n        uint oneEth = 1 ether; // Or finney or...\r\n        uint ethPrice = price * oneEth;\r\n        \r\n        require(msg.value >= ethPrice);\r\n        land[property].CurrentOwner.transfer(ethPrice);\r\n        \r\n        setTransaction(property, land[property].CurrentOwner, msg.sender, date);\r\n\r\n        removeOwnership(land[property].CurrentOwner,property);\r\n        land[property].CurrentOwner=msg.sender;\r\n        land[property].isAvailable=false;\r\n        land[property].requester = address(0);\r\n        land[property].requestStatus = reqStatus.Default;\r\n        profile[msg.sender].assetList.push(property);\r\n        \r\n    }\r\n\r\n\r\n    //removing the ownership of seller for the land. and it is called by the buyProperty function\r\n\r\n    function removeOwnership(address previousOwner,uint id) private{\r\n        uint index = findId(id,previousOwner);\r\n        profile[previousOwner].assetList[index] = profile[previousOwner]\r\n        .assetList[profile[previousOwner]\r\n        .assetList.length-1];\r\n        delete profile[previousOwner]\r\n        .assetList[profile[previousOwner]\r\n        .assetList.length-1];\r\n        profile[previousOwner]\r\n        .assetList.length--;\r\n    }\r\n\r\n    //for finding the index of a particular id\r\n\r\n    function findId(uint id,address user)\r\n    public view returns(uint){\r\n        uint i;\r\n        for(i=0;i<profile[user].assetList.length;i++){\r\n            if(profile[user].assetList[i] == id)\r\n                return i;\r\n        }\r\n        return i;\r\n    }\r\n\r\n    function setTransaction(uint64 id,\r\n    address _acctFrom,\r\n    address _acctTo,\r\n    uint64 _date)\r\n    public returns (bool){\r\n      transaction[id].acctFrom = _acctFrom;\r\n      transaction[id].acctTo = _acctTo;\r\n      transaction[id].date = _date;\r\n      return true;\r\n    }\r\n\r\n    function getTransaction(uint64 id) public view returns (address,address,uint64){\r\n      return (\r\n          transaction[id].acctTo,\r\n          transaction[id].acctFrom,\r\n          transaction[id].date\r\n      );\r\n    }\r\n}",
  "sourcePath": "D:/Users/Ryan Arcel Galendez/Desktop/GitHub/App/contracts/LandRegistration.sol",
  "compiler": {
    "name": "solc",
    "version": "0.5.16+commit.9c3226ce.Emscripten.clang"
  },
  "schemaVersion": "3.3.1",
  "updatedAt": "2021-02-21T01:17:46.854Z",
  "networkType": "ethereum",
  "devdoc": {
    "methods": {}
  },
  "userdoc": {
    "methods": {}
  }
}