{
  "contractName": "User",
  "abi": [
    {
      "inputs": [],
      "payable": false,
      "stateMutability": "nonpayable",
      "type": "constructor"
    },
    {
      "constant": true,
      "inputs": [
        {
          "internalType": "address",
          "name": "",
          "type": "address"
        }
      ],
      "name": "credentials",
      "outputs": [
        {
          "internalType": "string",
          "name": "",
          "type": "string"
        }
      ],
      "payable": false,
      "stateMutability": "view",
      "type": "function"
    },
    {
      "constant": false,
      "inputs": [
        {
          "internalType": "address",
          "name": "_addr",
          "type": "address"
        },
        {
          "internalType": "string",
          "name": "_cred",
          "type": "string"
        }
      ],
      "name": "setSuperAdmin",
      "outputs": [],
      "payable": false,
      "stateMutability": "nonpayable",
      "type": "function"
    },
    {
      "constant": true,
      "inputs": [
        {
          "internalType": "address",
          "name": "_addr",
          "type": "address"
        }
      ],
      "name": "getCredential",
      "outputs": [
        {
          "internalType": "string",
          "name": "",
          "type": "string"
        }
      ],
      "payable": false,
      "stateMutability": "view",
      "type": "function"
    },
    {
      "constant": true,
      "inputs": [],
      "name": "getSender",
      "outputs": [
        {
          "internalType": "address",
          "name": "",
          "type": "address"
        }
      ],
      "payable": false,
      "stateMutability": "view",
      "type": "function"
    }
  ],
  "bytecode": "0x608060405234801561001057600080fd5b50610056336040518060400160405280600981526020017f696e73706563746f72000000000000000000000000000000000000000000000081525061005b60201b60201c565b610157565b806000808473ffffffffffffffffffffffffffffffffffffffff1673ffffffffffffffffffffffffffffffffffffffff16815260200190815260200160002090805190602001906100ad9291906100b2565b505050565b828054600181600116156101000203166002900490600052602060002090601f016020900481019282601f106100f357805160ff1916838001178555610121565b82800160010185558215610121579182015b82811115610120578251825591602001919060010190610105565b5b50905061012e9190610132565b5090565b61015491905b80821115610150576000816000905550600101610138565b5090565b90565b6105b9806101666000396000f3fe608060405234801561001057600080fd5b506004361061004c5760003560e01c80635e01eb5a146100515780636016dd4a1461009b578063ab5da09314610158578063ccdad14b14610233575b600080fd5b6100596102f0565b604051808273ffffffffffffffffffffffffffffffffffffffff1673ffffffffffffffffffffffffffffffffffffffff16815260200191505060405180910390f35b6100dd600480360360208110156100b157600080fd5b81019080803573ffffffffffffffffffffffffffffffffffffffff1690602001909291905050506102f8565b6040518080602001828103825283818151815260200191508051906020019080838360005b8381101561011d578082015181840152602081019050610102565b50505050905090810190601f16801561014a5780820380516001836020036101000a031916815260200191505b509250505060405180910390f35b6102316004803603604081101561016e57600080fd5b81019080803573ffffffffffffffffffffffffffffffffffffffff169060200190929190803590602001906401000000008111156101ab57600080fd5b8201836020820111156101bd57600080fd5b803590602001918460018302840111640100000000831117156101df57600080fd5b91908080601f016020809104026020016040519081016040528093929190818152602001838380828437600081840152601f19601f8201169050808301925050505050505091929192905050506103a8565b005b6102756004803603602081101561024957600080fd5b81019080803573ffffffffffffffffffffffffffffffffffffffff1690602001909291905050506103ff565b6040518080602001828103825283818151815260200191508051906020019080838360005b838110156102b557808201518184015260208101905061029a565b50505050905090810190601f1680156102e25780820380516001836020036101000a031916815260200191505b509250505060405180910390f35b600033905090565b60006020528060005260406000206000915090508054600181600116156101000203166002900480601f0160208091040260200160405190810160405280929190818152602001828054600181600116156101000203166002900480156103a05780601f10610375576101008083540402835291602001916103a0565b820191906000526020600020905b81548152906001019060200180831161038357829003601f168201915b505050505081565b806000808473ffffffffffffffffffffffffffffffffffffffff1673ffffffffffffffffffffffffffffffffffffffff16815260200190815260200160002090805190602001906103fa9291906104df565b505050565b60606000808373ffffffffffffffffffffffffffffffffffffffff1673ffffffffffffffffffffffffffffffffffffffff1681526020019081526020016000208054600181600116156101000203166002900480601f0160208091040260200160405190810160405280929190818152602001828054600181600116156101000203166002900480156104d35780601f106104a8576101008083540402835291602001916104d3565b820191906000526020600020905b8154815290600101906020018083116104b657829003601f168201915b50505050509050919050565b828054600181600116156101000203166002900490600052602060002090601f016020900481019282601f1061052057805160ff191683800117855561054e565b8280016001018555821561054e579182015b8281111561054d578251825591602001919060010190610532565b5b50905061055b919061055f565b5090565b61058191905b8082111561057d576000816000905550600101610565565b5090565b9056fea265627a7a72315820fc43db1852542a24f49c8ab3440a608d5acb38801d1aa058c33d98d130705a2f64736f6c63430005100032",
  "source": "pragma solidity ^0.5.0;\r\n\r\ncontract User{\r\n    \r\n    mapping (address=>string) public credentials;\r\n\r\n    constructor() public {\r\n        setSuperAdmin(msg.sender, \"inspector\");\r\n    }\r\n    \r\n    function setSuperAdmin( address _addr, string memory _cred) public{\r\n        credentials[_addr] = _cred;\r\n    }\r\n    function getCredential(address _addr) public view returns (string memory){\r\n        return credentials[_addr];\r\n    }\r\n\r\n    function getSender() public view returns (address){\r\n        return msg.sender;\r\n    }\r\n\r\n    \r\n\r\n}",
  "sourcePath": "D:/Workspace/GitHub/Ethereum-land-registry/contracts/User.sol",
  "compiler": {
    "name": "solc",
    "version": "0.5.16+commit.9c3226ce.Emscripten.clang"
  },
  "schemaVersion": "3.3.4",
  "updatedAt": "2021-03-25T13:38:12.527Z",
  "networkType": "ethereum",
  "devdoc": {
    "methods": {}
  },
  "userdoc": {
    "methods": {}
  }
}